{
  "contractName": "counter",
  "abi": [
    {
      "constant": true,
      "inputs": [],
      "name": "count",
      "outputs": [
        {
          "name": "",
          "type": "uint256"
        }
      ],
      "payable": false,
      "stateMutability": "view",
      "type": "function",
      "signature": "0x06661abd"
    },
    {
      "anonymous": false,
      "inputs": [
        {
          "indexed": false,
          "name": "value",
          "type": "uint256"
        }
      ],
      "name": "Increment",
      "type": "event",
      "signature": "0x51af157c2eee40f68107a47a49c32fbbeb0a3c9e5cd37aa56e88e6be92368a81"
    },
    {
      "anonymous": false,
      "inputs": [
        {
          "indexed": false,
          "name": "value",
          "type": "uint256"
        }
      ],
      "name": "Decrement",
      "type": "event",
      "signature": "0x32814a5bdfd1b8c3d76c49c54e043d6e8aa93d197a09e16599b567135503f748"
    },
    {
      "constant": true,
      "inputs": [],
      "name": "getCount",
      "outputs": [
        {
          "name": "",
          "type": "uint256"
        }
      ],
      "payable": false,
      "stateMutability": "view",
      "type": "function",
      "signature": "0xa87d942c"
    },
    {
      "constant": false,
      "inputs": [],
      "name": "increment",
      "outputs": [],
      "payable": false,
      "stateMutability": "nonpayable",
      "type": "function",
      "signature": "0xd09de08a"
    },
    {
      "constant": false,
      "inputs": [],
      "name": "decrement",
      "outputs": [],
      "payable": false,
      "stateMutability": "nonpayable",
      "type": "function",
      "signature": "0x2baeceb7"
    }
  ],
  "bytecode": "0x60806040526000805534801561001457600080fd5b506101bc806100246000396000f3fe608060405260043610610062576000357c0100000000000000000000000000000000000000000000000000000000900463ffffffff16806306661abd146100675780632baeceb714610092578063a87d942c146100a9578063d09de08a146100d4575b600080fd5b34801561007357600080fd5b5061007c6100eb565b6040518082815260200191505060405180910390f35b34801561009e57600080fd5b506100a76100f1565b005b3480156100b557600080fd5b506100be61013c565b6040518082815260200191505060405180910390f35b3480156100e057600080fd5b506100e9610145565b005b60005481565b600160008082825403925050819055507f32814a5bdfd1b8c3d76c49c54e043d6e8aa93d197a09e16599b567135503f7486000546040518082815260200191505060405180910390a1565b60008054905090565b600160008082825401925050819055507f51af157c2eee40f68107a47a49c32fbbeb0a3c9e5cd37aa56e88e6be92368a816000546040518082815260200191505060405180910390a156fea165627a7a72305820a9290c29bb78fb153fe6981380d1758cee25eb80d8ff22ab4b918062b3e45e900029",
  "source": "pragma solidity ^0.5.0;\r\n\r\ncontract counter {\r\n    uint public count = 0; \r\n    \r\n    event Increment(uint value);\r\n    event Decrement(uint value);\r\n    \r\n    function getCount() view public returns(uint){\r\n        return count;\r\n    }\r\n     \r\n    function increment() public {\r\n        count+=1;\r\n        emit Increment(count);\r\n    }\r\n    \r\n    function decrement() public {\r\n        count-= 1;\r\n        emit Decrement(count);\r\n    }\r\n    \r\n}\r\n\r\n\r\n\r\n\r\n",
  "sourcePath": "C:/Blockchain/projects/demo/contracts/demo.sol",
  "compiler": {
    "name": "solc",
    "version": "0.5.0+commit.1d4f565a.Emscripten.clang"
  },
  "schemaVersion": "3.0.1",
  "updatedAt": "2021-10-29T22:22:13.396Z",
  "devdoc": {
    "methods": {}
  },
  "userdoc": {
    "methods": {}
  }
}