{
  "contractName": "demo",
  "abi": [
    {
      "constant": true,
      "inputs": [],
      "name": "count",
      "outputs": [
        {
          "name": "",
          "type": "uint256"
        }
      ],
      "payable": false,
      "stateMutability": "view",
      "type": "function",
      "signature": "0x06661abd"
    },
    {
      "anonymous": false,
      "inputs": [
        {
          "indexed": false,
          "name": "value",
          "type": "uint256"
        }
      ],
      "name": "Increment",
      "type": "event",
      "signature": "0x51af157c2eee40f68107a47a49c32fbbeb0a3c9e5cd37aa56e88e6be92368a81"
    },
    {
      "anonymous": false,
      "inputs": [
        {
          "indexed": false,
          "name": "value",
          "type": "uint256"
        }
      ],
      "name": "Decrement",
      "type": "event",
      "signature": "0x32814a5bdfd1b8c3d76c49c54e043d6e8aa93d197a09e16599b567135503f748"
    },
    {
      "constant": true,
      "inputs": [],
      "name": "getCount",
      "outputs": [
        {
          "name": "",
          "type": "uint256"
        }
      ],
      "payable": false,
      "stateMutability": "view",
      "type": "function",
      "signature": "0xa87d942c"
    },
    {
      "constant": false,
      "inputs": [],
      "name": "increment",
      "outputs": [],
      "payable": false,
      "stateMutability": "nonpayable",
      "type": "function",
      "signature": "0xd09de08a"
    },
    {
      "constant": false,
      "inputs": [],
      "name": "decrement",
      "outputs": [],
      "payable": false,
      "stateMutability": "nonpayable",
      "type": "function",
      "signature": "0x2baeceb7"
    }
  ],
  "bytecode": "0x60806040526000805534801561001457600080fd5b50610185806100246000396000f3fe6080604052600436106100615763ffffffff7c010000000000000000000000000000000000000000000000000000000060003504166306661abd81146100665780632baeceb71461008d578063a87d942c146100a4578063d09de08a146100b9575b600080fd5b34801561007257600080fd5b5061007b6100ce565b60408051918252519081900360200190f35b34801561009957600080fd5b506100a26100d4565b005b3480156100b057600080fd5b5061007b610114565b3480156100c557600080fd5b506100a261011a565b60005481565b60008054600019019081905560408051918252517f32814a5bdfd1b8c3d76c49c54e043d6e8aa93d197a09e16599b567135503f7489181900360200190a1565b60005490565b600080546001019081905560408051918252517f51af157c2eee40f68107a47a49c32fbbeb0a3c9e5cd37aa56e88e6be92368a819181900360200190a156fea165627a7a72305820ffe42086c9020d65e5dcbae616fa63feaecc8f929260448b10fd0e8b4b476d910029",
  "source": "pragma solidity ^0.5.0;\r\n\r\ncontract demo {\r\n    uint public count = 0; \r\n    \r\n    event Increment(uint value);\r\n    event Decrement(uint value);\r\n    \r\n    function getCount() view public returns(uint){\r\n        return count;\r\n    }\r\n     \r\n    function increment() public {\r\n        count+=1;\r\n        emit Increment(count);\r\n    }\r\n    \r\n    function decrement() public {\r\n        count-= 1;\r\n        emit Decrement(count);\r\n    }\r\n    \r\n}\r\n\r\n\r\n\r\n\r\n",
  "sourcePath": "C:/Blockchain/projects/demo/contracts/demo.sol",
  "compiler": {
    "name": "solc",
    "version": "0.5.0+commit.1d4f565a.Emscripten.clang"
  },
  "schemaVersion": "3.0.1",
  "updatedAt": "2021-10-29T22:36:02.926Z",
  "devdoc": {
    "methods": {}
  },
  "userdoc": {
    "methods": {}
  }
}